S01F0000617564696F5F6D73735F4D53535F434D335F305F6170702E737265639E
S315600000000000012099020000090300000B030000B4
S315600000100D0300000F030000110300000000000044
S315600000200000000000000000000000001303000054
S31560000030150300000000000017030000190300000C
S315600000401B0300001D0300001F03000021030000C6
S315600000502303000025030000270300002903000096
S315600000602B0300002D030000F51100002112000093
S315600000703303000035030000F51F0000390300005C
S315600000803B030000212000003F0300004103000005
S3156000009043030000450300004703000049030000D6
S315600000A04B0300000000000000000000000000009C
S315600000B00000000000000000000000004D0300008A
S315600000C04F030000E10700005303000055030000E2
S315600000D057030000590300005B0300005D03000046
S315600000E05F03000061030000630300006503000016
S315600000F067030000690300006B0300006D030000E6
S315600001006F030000710300007303000075030000B5
S3156000011077030000790300007B0300007D03000085
S315600001207F03000081030000830300008503000055
S3156000013087030000890300008B0300008D03000025
S315600001408F030000910300009303000095030000F5
S3156000015097030000990300009B0300009D030000C5
S315600001609F030000A1030000A3030000A503000095
S31560000170A7030000A9030000AB030000AD03000065
S31560000180AF030000B1030000B3030000B503000035
S31560000190B7030000B9030000BB030000BD03000005
S315600001A0BF030000C1030000C3030000C5030000D5
S315600001B0C7030000C9030000CB030000CD030000A5
S315600001C0CF030000D1030000D3030000D503000075
S315600001D0D7030000D9030000DB030000DD03000045
S315600001E0DF030000E1030000E3030000E503000015
S315600001F0E7030000E9030000EB030000ED030000E5
S31560000200EF030000F1030000F3030000F5030000B4
S31560000210F7030000F90300002D29000055290000AE
S315600002207D290000A5290000CD290000F5290000E0
S315600002301D2A0000452A00006D2A0000952A00004C
S31560000240BD2A0000E52A00000D2B0000352B0000BA
S315600002505D2B0000852B0000AD2B0000D52B000028
S31560000260FD2B0000252C00004D2C0000752C000095
S315600002709D2C0000C52C0000ED2C0000152D000003
S315600002803D2D0000652D00008D2D0000B52D000070
S31560000290DD2D0000052E000068488047684800286C
S315600002A00BD168486849694A884206D091421CBFAA
S315600002B050F8043B41F8043BF8D165486549664A05
S315600002C0884206D091421CBF50F8043B41F8043B7B
S315600002D0F8D162486249634A914218BF41F8040BFB
S315600002E0FAD10000000000000000000000000000DD
S315600002F0DFF874010FF2030E00474FF000004FF075
S315600003000001DFF868F1FEE7FEE7FEE7FEE7FEE7DD
S31560000310FEE7FEE7FEE7FEE7FEE7FEE7FEE7FEE74F
S31560000320FEE7FEE7FEE7FEE7FEE7FEE7FEE7FEE73F
S31560000330FEE7FEE7FEE7FEE7FEE7FEE7FEE7FEE72F
S31560000340FEE7FEE7FEE7FEE7FEE7FEE7FEE7FEE71F
S31560000350FEE7FEE7FEE7FEE7FEE7FEE7FEE7FEE70F
S31560000360FEE7FEE7FEE7FEE7FEE7FEE7FEE7FEE7FF
S31560000370FEE7FEE7FEE7FEE7FEE7FEE7FEE7FEE7EF
S31560000380FEE7FEE7FEE7FEE7FEE7FEE7FEE7FEE7DF
S31560000390FEE7FEE7FEE7FEE7FEE7FEE7FEE7FEE7CF
S315600003A0FEE7FEE7FEE7FEE7FEE7FEE7FEE7FEE7BF
S315600003B0FEE7FEE7FEE7FEE7FEE7FEE7FEE7FEE7AF
S315600003C0FEE7FEE7FEE7FEE7FEE7FEE7FEE7FEE79F
S315600003D0FEE7FEE7FEE7FEE7FEE7FEE7FEE7FEE78F
S315600003E0FEE7FEE7FEE7FEE7FEE7FEE7FEE7FEE77F
S315600003F0FEE7FEE7FEE7FEE7FEE7FEE7FEE7FEE76F
S31560000400FEE7FEE7FEE7FEE7FEE7FEE7FEE7FEE75E
S31560000410FEE7FEE7FEE7FEE7FEE7FEE7FEE7FEE74E
S31560000420FEE7FEE7FEE7FEE7FEE7FEE7FEE7FEE73E
S31560000430FEE7FEE7FEE7FEE7FEE70000D9240000E0
S31560000440010000007004006070040000503E00006F
S31560000450503E0060000000202401002000000000E3
S315600004602401002078020020DD360000E50400004B
S3156000047040F22413C2F200031A780AB901201870F8
S31560000480704700BF40F20000C2F2000008B5036882
S315600004902BB140F20003C0F2000303B1984708BDD8
S315600004A080B582B000AF7860786802F011FE0246CF
S315600004B00B461046194603F0A3F902460B46104652
S315600004C019464FF000024FF0804303F5781302F0AF
S315600004D0B3FC02460B461046194607F10807BD46AF
S315600004E080BD00BFF0B58DB000AF01F0E9FD4FF003
S315600004F001004FF0420101F019FE4FF002004FF08B
S31560000500050101F013FE4FF002004FF0010101F00A
S315600005102BFE4FF0010001F047FE01F09FFE4FF009
S3156000052001004FF004014FF000024FF0000301F0AC
S315600005309DFE4FF0010001F069FF4FF4FA637B60A6
S315600005404FF48033BB604FF00003FB604FF0000355
S315600005503B614FF47A737B614FF00003BB6140F2FD
S315600005600020C2F200004FF070014FF0000200F070
S31560000570C5FE4FF0FF33FB774FF01F0000F0F4F934
S3156000058000F016FA4FF0010000F080FA4FF000001C
S3156000059000F096FA4FF001004FF0000100F062FAA9
S315600005A0BA6944F620639A4240F0DA8000F098FA1D
S315600005B003467B612BE04FF00003FB6209E04FF0DE
S315600005C002004FF0000101F0CFFDFB6A03F1010369
S315600005D0FB62FA6A44F61F639A42F0DD4FF002004E
S315600005E04FF0010101F0C0FD4FF00003FB6203E034
S315600005F0FB6A03F10103FB62FA6A42F29F53C0F29F
S3156000060026039A42F4DD00F06BFA03467B617B6950
S31560000610B3F1FF3FCFD04FF005033B624FF00203CB
S315600006207B624FF0FF33BB6223E0786902F050FDD6
S3156000063004460D46786AFFF733FF02460B464FF0D5
S3156000064000010E462046294603F01AF80346002BA1
S3156000065002D04FF001031E46F3B2002B01D03B6A75
S31560000660BB623B6A03F1FF333B627B6A03F10103C2
S315600006707B623B6A002B03DBBB6AB3F1FF3FD4D0DE
S3156000068040F22813C2F200031B68002B0FD14FF013
S315600006901F0000F069F9BB6ADBB2C3F14503DBB248
S315600006A04FF00000194600F0DDF900F0FFF940F266
S315600006B02813C2F200031B68012B4ED1BB6A002BC4
S315600006C04BD0BB6A012B0CD14FF0010000F04CF906
S315600006D04FF000004FF0400100F0C4F900F0E6F979
S315600006E03BE0BB6A022B0CD14FF0030000F03CF9F3
S315600006F04FF000004FF0400100F0B4F900F0D6F979
S315600007002BE0BB6A032B0CD14FF0070000F02CF9ED
S315600007104FF000004FF0400100F0A4F900F0C6F978
S315600007201BE0BB6A042B0CD14FF00F0000F01CF9E4
S315600007304FF000004FF0400100F094F900F0B6F978
S315600007400BE04FF01F0000F00FF94FF000004FF084
S31560000750400100F087F900F0A9F94FF00003BB6192
S315600007607A6913464FEA830313444FEAC3031A4672
S315600007703B699A422AD8FB68002B06D14FF4803336
S31560000780BB604FF00103FB6008E0FB68012B05D1FD
S315600007904FF00003BB604FF00003FB60BB684FEA9D
S315600007A013134FF00100194601F054FE4FF0000399
S315600007B03B617A6841F26F739A4203D94FF4FA63E8
S315600007C07B6003E07B6803F101037B603B6903F1B7
S315600007D001033B61BB6903F10103BB61E0E600BF56
S315600007E080B586B000AF4FF480337B604FF0000376
S315600007F0BB604FF00003FB604FF4FA733B614FF050
S3156000080000037B6129E0FA683B699A421DD1BB68A7
S31560000810002B06D14FF480337B604FF00103BB6041
S3156000082008E0BB68012B05D14FF000037B604FF0F9
S315600008300003BB607B684FEA13134FF00100194653
S3156000084001F008FE4FF00003FB60FB6803F1010353
S31560000850FB607B6903F101037B617A694CF2BF63DC
S31560000860C0F22D039A42CED940F22813C2F2000399
S315600008701B6883F0010240F22813C2F200031A607B
S315600008804FF0010001F0C2FC07F11807BD4680BDBC
S3156000089080B586B002AF0346FB71FB793B7307F107
S315600008A00C034FF00002009240F20020C2F20000FA
S315600008B04FF05A011A464FF0010300F0D5FD40F2A1
S315600008C00020C2F200004FF0000100F0C1FE0346B6
S315600008D0FB7307F108034FF00002009240F200201C
S315600008E0C2F200004FF05A011A464FF0010300F0C1
S315600008F035FE40F20020C2F200004FF0000100F029
S31560000900A7FE0346FB733B7A184607F11007BD4600
S3156000091080BD00BF80B586B002AF02460B46FA7155
S31560000920BB71FB793B73BB797B7307F10C034FF0AB
S315600009300002009240F20020C2F200004FF05A011D
S315600009401A464FF0020300F08FFD40F20020C2F21B
S3156000095000004FF0000100F07BFE0346FB7307F1D9
S315600009601007BD4680BD00BF80B586B002AF0346A6
S31560000970FB71FB793B7307F10C034FF000020092A9
S3156000098040F20020C2F200004FF070011A464FF0AC
S31560000990010300F069FD40F20020C2F200004FF052
S315600009A0000100F055FE07F11007BD4680BD00BF8F
S315600009B080B582B000AF4FF001004FF00001FFF745
S315600009C0A9FF4FF002004FF00001FFF7A3FF4FF0C1
S315600009D004004FF00101FFF79DFF4FF005004FF057
S315600009E00001FFF797FF4FF00D004FF00001FFF792
S315600009F091FF4FF00E004FF00001FFF78BFF4FF0B5
S31560000A000F004FF00001FFF785FF4FF010004FF029
S31560000A100001FFF77FFF4FF013004FF06401FFF70F
S31560000A2079FF4FF01A00FFF733FF034603F07F03A9
S31560000A304FF01A001946FFF76DFF4FF01D00FFF7E4
S31560000A4027FF034643F02003FB71FB794FF01D003F
S31560000A501946FFF75FFF4FF00103184607F10807D5
S31560000A60BD4680BD80B582B000AF02460B46FA71C6
S31560000A70BB71FB7903F10403DAB2BB791046194600
S31560000A80FFF748FF07F10807BD4680BD80B582B015
S31560000A9000AF0346FB71FB794FF003001946FFF781
S31560000AA039FF07F10807BD4680BD00BF80B500AFBE
S31560000AB04FF00C004FF00101FFF72CFF80BD00BF27
S31560000AC080B582B000AF0346FB71FB794FF0010041
S31560000AD01946FFF71FFF07F10807BD4680BD00BF37
S31560000AE080B58AB000AF4FF000037B614FF0000322
S31560000AF0BB6140F23C10C2F200004FF4E1314FF0AE
S31560000B00030200F083F843F67C43C0F2000307F16A
S31560000B100C0293E8030082E803004FF00003FB61D8
S31560000B204CE03B4640F23C10C2F2000019464FF0E2
S31560000B30090200F0DFF90346002BF2D107F10C033E
S31560000B4040F23C10C2F2000019464FF0080200F075
S31560000B505FF93B4640F23C10C2F2000019464FF086
S31560000B60090200F0C7F903463B623B7887F82430F8
S31560000B707B7887F8253097F82430592B03D197F87E
S31560000B802530592B04D0FB6903F10103FB6115E0A5
S31560000B90FB784FEA03239AB2BB781344FB84FB8C41
S31560000BA0B3F57A7F08D97B6903F101037B61BB6981
S31560000BB003F10103BB6101E0FB8C04E0FB69632B7D
S31560000BC0AFDD4FF0FF33184607F12807BD4680BDFD
S31560000BD080B483B000AF0346FB804EF20013CEF2C2
S31560000BE00003B7F906204FEA5212F98801F01F0197
S31560000BF04FF0010000FA01F102F1600243F82210A1
S31560000C0007F10C07BD4680BC704700BF80B588B051
S31560000C1000AFF860B9601346FB714FF00103FB82C9
S31560000C204FF00003BB61FA6840F26413C2F200033E
S31560000C309A4207D0FA6840F23C13C2F200039A4225
S31560000C4000D000BEBB68002B00D100BE01F04AFC9C
S31560000C50FA6840F26413C2F200039A422ED1FB682E
S31560000C604FF080421A60FB684FF084425A60FB681E
S31560000C704FF00A021A8140F20C03C2F200031B68AD
S31560000C80BB6142F20003CEF2040342F20002CEF2EE
S31560000C900402126B42F080021A634FF00A00FFF7FB
S31560000CA097FF42F20003CEF2040342F20002CEF254
S31560000CB00402126B22F080021A6331E0FA6840F295
S31560000CC00003C4F201031360FA6840F20003C4F241
S31560000CD020235360FB684FF00B021A8140F2100329
S31560000CE0C2F200031B68BB6142F20003CEF204034A
S31560000CF042F20002CEF20402126B42F480721A6370
S31560000D004FF00B00FFF764FF42F20003CEF20403DC
S31560000D1042F20002CEF20402126B22F480721A636F
S31560000D20FB681B684FF000021A71BB68002B21D06C
S31560000D30BA69BB68B2FBF3F3FB61FB6903F00803B6
S31560000D40002B06D0FB694FEA131303F10103FB6125
S31560000D5003E0FB694FEA1313FB61FA694FF6FF7311
S31560000D609A4200D900BEFA694FF6FF739A4201D8DB
S31560000D70FB69FB82FB685B684FF00102C3F89C214C
S31560000D80FB681B68FA8A4FEA122292B2D2B21A71D3
S31560000D90FB681B68FA8AD2B21A70FB685B684FF010
S31560000DA00002C3F89C21FB681B68FA791A73FB681A
S31560000DB01B684FF00E021A72FB685B684FF0000208
S31560000DC0C3F81022FB684FF000021A61FB684FF00F
S31560000DD00002DA60FB684FF000025A61FB684FF070
S31560000DE00002DA61FA6841F2ED03C0F200031362B1
S31560000DF0FB684FF000029A61FB684FF000025A628E
S31560000E00FB684FF000029A7207F12007BD4680BD6D
S31560000E1080B489B000AFF860B9607A604FF00003C3
S31560000E203B61FA6840F26413C2F200039A4207D04B
S31560000E30FA6840F23C13C2F200039A4200D000BE48
S31560000E40BB68002B00D100BE7B68002B00D100BEC2
S31560000E50FA6840F26413C2F200039A4206D0FA6856
S31560000E6040F23C13C2F200039A423DD1BB68002BAC
S31560000E703AD07B68002B37D0FB681B681B7DFB76FE
S31560000E80FB689A7AFB7E42EA0303DAB2FB689A72DF
S31560000E90FB7E03F02003002B23D04FF01003FB6191
S31560000EA07B680F2B01D87B68FB614FF000037B6189
S31560000EB00EE0FB681B68B9683A690A4412781A70D2
S31560000EC03B6903F101033B617B6903F101037B61CC
S31560000ED07A69FB699A42ECD37A687B69C3EB020351
S31560000EE07B607B68002BC7D107F12407BD4680BCB9
S31560000EF0704700BF80B487B000AFF860B9607A60B1
S31560000F004FF000033B614FF00003FB75FA6840F257
S31560000F106413C2F200039A4207D0FA6840F23C13A7
S31560000F20C2F200039A4200D000BEBB68002B00D11B
S31560000F3000BE7B68002B00D100BEFA6840F26413E5
S31560000F40C2F200039A4206D0FA6840F23C13C2F23B
S31560000F5000039A4234D1BB68002B31D07B68002BEA
S31560000F602ED0FB681B681B7DFB75FB689A7AFB7D40
S31560000F7042EA0303DAB2FB689A7217E0BA683B6921
S31560000F801344FA6812681278D2B21A703B6903F198
S31560000F9001033B61FB681B681B7DFB75FB689A7AE6
S31560000FA0FB7D42EA0303DAB2FB689A72FB7D03F0CB
S31560000FB00103DBB2002B03D03A697B689A42DDD32A
S31560000FC03B69184607F11C07BD4680BC704700BFE9
S31560000FD080B584B000AF78607A6840F26413C2F27C
S31560000FE000039A4207D07A6840F23C13C2F20003CB
S31560000FF09A4200D000BE7A6840F26413C2F20003DF
S315600010009A4206D07A6840F23C13C2F200039A42D2
S3156000101067D17B681B681B7ADBB203F00F03FB7337
S31560001020FB7B0C2B54D801A252F823F06110000010
S31560001030D11000007D100000D11000009910000052
S31560001040D1100000B5100000D1100000D1100000D2
S31560001050D1100000D1100000D110000099100000DE
S315600010607B685B6A002B00D100BE7B685B6A002BE5
S3156000107030D07B685B6A7868984732E07B681B6A29
S31560001080002B00D100BE7B681B6A002B24D07B68D6
S315600010901B6A7868984724E07B68DB69002B00D17F
S315600010A000BE7B68DB69002B18D07B68DB697868DB
S315600010B0984716E07B689B69002B00D100BE7B6871
S315600010C09B69002B0CD07B689B697868984708E021
S315600010D000BE06E000BF04E000BF02E000BF00E023
S315600010E000BF07F11007BD4680BD00BF80B487B062
S315600010F000AF78607A6840F26413C2F200039A42E5
S3156000110007D07A6840F23C13C2F200039A4200D0DC
S3156000111000BE7B68DB68002B00D100BE7B681B6964
S31560001120002B00D100BE7A6840F26413C2F200035D
S315600011309A4206D07A6840F23C13C2F200039A42A1
S3156000114052D17B68DB68002B4ED07B681B69002B15
S315600011504AD07B681B681B7DFB727B689A7AFB7A38
S3156000116042EA0303DAB27B689A72FB7A03F02003E1
S31560001170002B29D04FF010033B617B681A697B68AE
S315600011805B69C3EB02037B617B690F2B01D87B69CB
S315600011903B614FF00003FB6012E07B681B687A6876
S315600011A0D1687A6852690A4412781A707B685B69FA
S315600011B003F101027B685A61FB6803F10103FB607E
S315600011C0FA683B699A42E8D37B685A697B681B690F
S315600011D09A4209D17B684FF000021A617B685B68AE
S315600011E04FF00002C3F8842007F11C07BD4680BC9F
S315600011F0704700BF684620F007018D4689B500AF8D
S3156000120040F26410C2F20000FFF7E2FE4FF00A00FF
S31560001210FFF7DEFCBD46BDE889408546704700BFE6
S31560001220684620F007018D4689B500AF40F23C1054
S31560001230C2F20000FFF7CCFE4FF00B00FFF7C8FCD0
S31560001240BD46BDE889408546704700BF80B483B01F
S3156000125000AF0346FB804EF20013CEF20003B7F9EF
S3156000126006204FEA5212F98801F01F014FF0010083
S3156000127000FA01F143F8221007F10C07BD4680BC65
S31560001280704700BF80B483B000AF0346FB804EF268
S315600012900013CEF20003B7F906204FEA5212F9881E
S315600012A001F01F014FF0010000FA01F102F1200286
S315600012B043F8221007F10C07BD4680BC704700BF9B
S315600012C080B483B000AF0346FB804EF20013CEF2CB
S315600012D00003B7F906204FEA5212F98801F01F01A0
S315600012E04FF0010000FA01F102F1600243F82210AA
S315600012F007F10C07BD4680BC704700BF80B584B05F
S3156000130000AF786013460A46FA70BB70BB78FB6024
S315600013107A6840F28C13C2F200039A4207D07A6868
S3156000132040F20023C2F200039A4200D000BE00F0F1
S3156000133043FE0346BB6078684FF000014FF07402CD
S3156000134002F0F4F97A6840F28C13C2F200039A4212
S315600013502CD17B684FF00E025A827A6842F2000303
S31560001360C4F2000353617A6840F20003C4F20423B6
S31560001370936142F20003CEF2040342F20002CEF21F
S315600013800402126B42F400621A634FF00E00FFF71C
S3156000139097FF42F20003CEF2040342F20002CEF25D
S315600013A00402126B22F400621A632BE07B684FF032
S315600013B011025A827A6842F20003C4F20103536151
S315600013C07A6840F20003C4F22423936142F2000378
S315600013D0CEF2040342F20002CEF20402126B42F431
S315600013E080521A634FF01100FFF76AFF42F2000362
S315600013F0CEF2040342F20002CEF20402126B22F431
S3156000140080521A637B689B691A467B68DA61FB784F
S315600014104FEA43027B681A607B689B69FA684FEA09
S31560001420920202F00102DA617B689B69FA684FEA10
S31560001430520202F001025A607B689B69FA6802F008
S3156000144001021A607B685B697A681268D2B21A73A5
S315600014507B689B694FF001029A61B86800F0BEFD37
S3156000146007F11007BD4680BD80B586B000AFF86055
S315600014707A600A46FA727B80FA6840F28C13C2F28E
S3156000148000039A4207D0FA6840F20023C2F20003D2
S315600014909A4200D000BE00F08FFD03467B61FB6878
S315600014A01B7A002B03D1FB684FF001021A72FB68AE
S315600014B04FF0010283F87220FB7A4FEA4302FB6821
S315600014C05A60FB684FF00002DA62FB687A681A625B
S315600014D07A88FB685A62FB684FF000029A62FB6882
S315600014E04FF0010283F83C20FB6897F820201A74BD
S315600014F0FB6893F85C30DBB2012B05D1FB684FF0DB
S31560001500010283F8712004E0FB689B694FF00102D9
S315600015105A61FB6893F87030012B11D1FB689B69A7
S315600015204FF00002DA60FB685B691B79FB74FB7C39
S31560001530DBB2FB74FB685B8A1BB21846FFF7C0FE22
S31560001540FB685B8A1BB21846FFF780FE786900F07D
S3156000155045FD07F11807BD4680BD00BF80B586B062
S3156000156000AFF8607A600A46FA727B80FA6840F2E9
S315600015708C13C2F200039A4207D0FA6840F2002345
S31560001580C2F200039A4200D000BE00F015FD034689
S315600015907B61FB681B7A002B03D1FB684FF002026C
S315600015A01A72FB684FF0020283F87220FB7A4FEAE8
S315600015B04302FB685A60FB684FF00102DA62FB681F
S315600015C07A681A637A88FB685A63FB684FF0000290
S315600015D09A63FB684FF0010283F83C20FB6897F83A
S315600015E020201A74FB6893F85C30DBB2012B05D1BE
S315600015F0FB684FF0010283F8712004E0FB689B6989
S315600016004FF001025A61FB6893F87030012B11D1DB
S31560001610FB689B694FF00002DA60FB685B691B79C7
S31560001620FB74FB7CDBB2FB74FB685B8A1BB21846FF
S31560001630FFF746FEFB685B8A1BB21846FFF706FE9D
S31560001640786900F0CBFC07F11807BD4680BD00BF86
S3156000165080B485B000AF786039607A6840F28C13E8
S31560001660C2F200039A4207D07A6840F20023C2F2BF
S3156000167000039A4200D000BE7B683A681A647B68B1
S3156000168093F83C30FB73FB7B012BF8D0FB7B184651
S3156000169007F11407BD4680BC704700BF80B483B0B5
S315600016A000AF78607B6893F86830002B04D07B6865
S315600016B09B694FF001029A6007F10C07BD4680BC3A
S315600016C0704700BF80B584B000AF78604FF001030B
S315600016D0BB737A6840F28C13C2F200039A4207D059
S315600016E07A6840F20023C2F200039A4200D000BE3C
S315600016F07B685B691B79FB72FB7ADBB2A3F108033B
S31560001700D02B00F21C8401A252F823F0511A00007B
S315600017103F1F00003F1F00003F1F00003F1F0000EB
S315600017203F1F00003F1F00003F1F0000511A0000CE
S315600017303F1F00003F1F00003F1F00003F1F0000CB
S315600017403F1F00003F1F00003F1F0000F51A00000A
S315600017503F1F00003F1F00003F1F00003F1F0000AB
S315600017603F1F00003F1F00003F1F0000D11A00000E
S315600017703F1F00003F1F00003F1F00003F1F00008B
S315600017803F1F00003F1F00003F1F0000F51A0000CA
S315600017903F1F00003F1F00003F1F00003F1F00006B
S315600017A03F1F00003F1F00003F1F0000891B000015
S315600017B03F1F00003F1F00003F1F00003F1F00004B
S315600017C03F1F00003F1F00003F1F0000C51A0000BA
S315600017D03F1F00003F1F00003F1F00003F1F00002B
S315600017E03F1F00003F1F00003F1F0000AD1B0000B1
S315600017F03F1F00003F1F00003F1F00003F1F00000B
S315600018003F1F00003F1F00003F1F0000FD1B000040
S315600018103F1F00003F1F00003F1F00003F1F0000EA
S315600018203F1F00003F1F00003F1F0000211C0000FB
S315600018303F1F00003F1F00003F1F00003F1F0000CA
S315600018403F1F00003F1F00003F1F00005B1C0000A1
S315600018503F1F00003F1F00003F1F00003F1F0000AA
S315600018603F1F00003F1F00003F1F0000FD1C0000DF
S315600018703F1F00003F1F00003F1F00003F1F00008A
S315600018803F1F00003F1F00003F1F0000F31C0000C9
S315600018903F1F00003F1F00003F1F00003F1F00006A
S315600018A03F1F00003F1F00003F1F0000FD1C00009F
S315600018B03F1F00003F1F00003F1F00003F1F00004A
S315600018C03F1F00003F1F00003F1F0000F31C000089
S315600018D03F1F00003F1F00003F1F00003F1F00002A
S315600018E03F1F00003F1F00003F1F00003F1D00001C
S315600018F03F1F00003F1F00003F1F00003F1F00000A
S315600019003F1F00003F1F00003F1F0000BF1C00007C
S315600019103F1F00003F1F00003F1F00003F1F0000E9
S315600019203F1F00003F1F00003F1F00003F1D0000DB
S315600019303F1F00003F1F00003F1F00003F1F0000C9
S315600019403F1F00003F1F00003F1F0000BF1C00003C
S315600019503F1F00003F1F00003F1F00003F1F0000A9
S315600019603F1F00003F1F00003F1F00009B1D00003F
S315600019703F1F00003F1F00003F1F00003F1F000089
S315600019803F1F00003F1F00003F1F0000731E000046
S315600019903F1F00003F1F00003F1F00003F1F000069
S315600019A03F1F00003F1F00003F1F0000731E000026
S315600019B03F1F00003F1F00003F1F00003F1F000049
S315600019C03F1F00003F1F00003F1F0000731E000006
S315600019D03F1F00003F1F00003F1F00003F1F000029
S315600019E03F1F00003F1F00003F1F0000051F000053
S315600019F03F1F00003F1F00003F1F00003F1F000009
S31560001A003F1F00003F1F00003F1F0000051F000032
S31560001A103F1F00003F1F00003F1F00003F1F0000E8
S31560001A203F1F00003F1F00003F1F00003F1F0000D8
S31560001A303F1F00003F1F00003F1F00003F1F0000C8
S31560001A403F1F00003F1F00003F1F0000451E0000B3
S31560001A507B689B694FF000025A617B685B697A68B4
S31560001A605268D2B21A727B689B697A68D26AC3F886
S31560001A7000217B68DB6A002B04D17B684FF0000293
S31560001A809A6207E07B68DB6A012B03D17B684FF0C3
S31560001A9000029A637B6893F87130002B04D07B68F0
S31560001AA04FF0000283F871207B681A7A7B6893F89E
S31560001AB072309A4200F067827B6893F872207B6886
S31560001AC01A7269E27B689B694FF001025A6163E2B0
S31560001AD07B689B694FF001021A617B684FF00202D6
S31560001AE083F83C207B684FF000021A727868FFF733
S31560001AF0D5FD51E27B689A6A7B685B6A9A420DD231
S31560001B007B685A697B68196A7B689B6A194409789D
S31560001B10117203F101027B689A623DE27B681B7A6F
S31560001B20032B09D17B684FF00102DA627B689B69FF
S31560001B304FF001025A612FE27B684FF000021A7281
S31560001B407B681B7C03F001037B737B687A7B83F87D
S31560001B5070207B7B002B08D17B689B694FF001026C
S31560001B601A617868FFF79AFD08E07B685B8A1BB2AA
S31560001B701846FFF787FB4FF00003BB737B684FF097
S31560001B80000283F83C2007E27B689B694FF0010204
S31560001B901A617B684FF0020283F83C207B684FF045
S31560001BA000021A727868FFF779FDF5E17B685B6B76
S31560001BB0012B05D97B689B694FF001029A60EBE1C6
S31560001BC07B685B6B012B05D17B689B694FF00002DC
S31560001BD09A60E1E17B689B694FF001029A607B68DD
S31560001BE09B694FF001021A617B684FF0000283F82F
S31560001BF03C207B684FF000021A72CDE17B689B69DE
S31560001C004FF001021A617B684FF0020283F83C20B4
S31560001C107B684FF000021A727868FFF73FFDBBE100
S31560001C207B681A6B7B689B6B1A4479684969097A89
S31560001C30C9B2117003F101027B689A637B689A6B83
S31560001C407B685B6B03F1FF339A42C0F09E817B68D1
S31560001C509B694FF000029A609EE17B681A6B7B6815
S31560001C609B6B13447A685269127AD2B21A707B6897
S31560001C701B7C03F001037B737B687A7B83F870209F
S31560001C807B7B002B08D17B689B694FF001021A6150
S31560001C907868FFF703FD08E07B685B8A1BB218462D
S31560001CA0FFF7F0FA4FF00003BB737B684FF000025A
S31560001CB01A727B684FF0000283F83C206CE17B6807
S31560001CC09B694FF001029A607B684FF000021A72BE
S31560001CD07B684FF0000283F85C207B6893F8713074
S31560001CE0002B00F054817B689B694FF001025A61BA
S31560001CF052E17B684FF0010283F871207B684FF0F8
S31560001D0004021A727B684FF000029A657B684FF096
S31560001D100002DA607B689B695B69002B09D07B688F
S31560001D209B694FF000025A617B684FF0010283F8AD
S31560001D3071207B684FF0010283F85C202CE17B68A0
S31560001D401B6D002B1CD07B689A6D7B685B6D9A421D
S31560001D5016D27B685B691B7A3B737B681A6D7B68FE
S31560001D609B6D1A44397B117003F101027B689A6599
S31560001D707B68DB684FEA03223B7B1A447B68DA6048
S31560001D807B689A6D7B685B6D9A42C0F002817B6866
S31560001D909B694FF000029A60FEE07B681B7A042B19
S31560001DA035D17B689A6D7B681B6E9A4203D17B68DE
S31560001DB0DA687B68DA647B685B6E002B21D07B68AF
S31560001DC05B6E7A68116D7A68926D92B278689847A0
S31560001DD00346FB73FB7B002B08D17868FFF75EFC3C
S31560001DE07B689B694FF001029A6017E07B689B698C
S31560001DF04FF000029A607B684FF0000283F868201B
S31560001E000CE07B689B694FF001029A6006E07B6894
S31560001E104FF00002DA647868FFF740FC7B684FF0A9
S31560001E20000283F85C207B6893F87130002B04D045
S31560001E307B689B694FF001025A617B684FF0000234
S31560001E401A72A9E07B684FF000021A727B684FF045
S31560001E500002DA647B6893F85C30DBB2012B04D154
S31560001E607B684FF0020283F85C207868FFF716FC07
S31560001E7092E0FB7ADBB2A82B1BD17B684FF00502A0
S31560001E801A727B684FF00002DA607B684FF00102DD
S31560001E9083F85C207B689B695B69002B09D07B6853
S31560001EA09B694FF000025A617B684FF0010283F82C
S31560001EB071207B68DA6C7B689B6C9A4205D37B6881
S31560001EC05B694FF0FF321A720CE07B685A697B6877
S31560001ED0596C7B68DB6C19440978117203F1010255
S31560001EE07B68DA647B68DA6C7B689B6C9A4252D357
S31560001EF07B689B694FF000029A607B684FF0000236
S31560001F00DA6449E07B684FF00002DA647B689B69BB
S31560001F104FF001029A607B684FF0000283F85C2004
S31560001F207B6893F87130002B04D07B689B694FF017
S31560001F3001025A617B684FF000021A722CE07B68DE
S31560001F409B694FF000025A617B684FF000021A727B
S31560001F507B684FF00002DA647B6893F83C30DBB252
S31560001F60012B04D17B684FF0020283F83C207B682A
S31560001F7093F85C30DBB2012B0ED17B684FF0020226
S31560001F8083F85C2008E000BF06E000BF04E000BF05
S31560001F9002E000BF00E000BFBB7B002B04D07B6883
S31560001FA09B694FF00002DA607B685B691B79FB72A4
S31560001FB007F11007BD4680BD80B582B000AF00F066
S31560001FC06FFA03467B604FF0010000F079FA7B6898
S31560001FD0184607F10807BD4680BD00BF80B582B0D0
S31560001FE000AF7860786800F06BFA07F10807BD46C5
S31560001FF080BD00BF684620F007018D4689B500AFF9
S3156000200040F28C10C2F20000FFF75CFB4FF00E004E
S31560002010FFF756F9BD46BDE889408546704700BF63
S31560002020684620F007018D4689B500AF40F2002072
S31560002030C2F20000FFF746FB4FF01100FFF740F9D0
S31560002040BD46BDE889408546704700BF80B483B011
S3156000205000AF0346FB804EF20013CEF20003B7F9E1
S3156000206006204FEA5212F98801F01F014FF0010075
S3156000207000FA01F143F8221007F10C07BD4680BC57
S31560002080704700BF80B483B000AF0346FB804EF25A
S315600020900013CEF20003B7F906204FEA5212F98810
S315600020A001F01F014FF0010000FA01F102F1600238
S315600020B043F8221007F10C07BD4680BC704700BF8D
S315600020C080B582B000AF42F20003CEF2040342F262
S315600020D00002CEF20402126B42F480421A634FF0A1
S315600020E000037B600EE07A6843F60453C0F2000397
S315600020F033F812301BB21846FFF7C4FF7B6803F152
S3156000210001037B607B681F2BEDD942F20003CEF2A0
S31560002110040342F20002CEF20402126B22F4804201
S315600021201A6307F10807BD4680BD00BF80B485B05D
S3156000213000AF03463960FB71FB79FB60FB681F2BC0
S3156000214000D900BEFB681F2B08D8FA6843F68443A3
S31560002150C0F2000353F822303A681A6007F1140798
S31560002160BD4680BC704700BF80B485B000AF0246F4
S315600021700B46FA71BB71FB79FB60FB681F2B00D9BC
S3156000218000BEFB681F2B09D840F20003C4F2262369
S31560002190FA68B97902F5886243F8221007F11407E4
S315600021A0BD4680BC704700BF80B584B000AF0346B3
S315600021B0FB71FB79FB60FB681F2B00D900BEFB68D7
S315600021C01F2B1ED8FA6843F68443C0F2000353F807
S315600021D022301B68BB60FA6843F68443C0F2000392
S315600021E053F82230BA6842F008021A60FA6843F679
S315600021F00453C0F2000333F812301BB21846FFF7DF
S3156000220025FF07F11007BD4680BD00BF80B584B0CD
S3156000221000AF0346FB71FB79FB60FB681F2B00D99F
S3156000222000BEFB681F2B15D843F20003C4F20103FE
S31560002230FA684FF0010101FA02F2C3F88020FA68E9
S3156000224043F60453C0F2000333F812301BB218464B
S31560002250FFF718FF07F11007BD4680BD80B500AFD8
S3156000226000F054FB00F05AFA80BD00BF90B486B00F
S3156000227000AFF871B9717A713B71FB79022B00D9A5
S3156000228000BEFB79022B00F2BC8043F67852C0F2A6
S31560002290000207F10C0312681146198003F102036C
S315600022A04FEA12421A704FF00103BB744FF00003FD
S315600022B0FB74FB7907F11802134413F80C3C7B742A
S315600022C040F20003C4F20203D3F8C8307B6140F2E7
S315600022D00003C4F202034FF00002C3F8C82040F2C4
S315600022E00002C4F20202797C0B464FEA43030B44B8
S315600022F04FEA0313134403F506737A791A717B79EF
S3156000230003F00103DBB2002B02D04FF00003BB7475
S315600023107B7903F00203002B02D04FF00103FB74BC
S3156000232040F20002C4F20202797C43F67453C0F2B2
S3156000233000031B68FC7997F812C0F87C4FEA4404E6
S31560002340A4444FEA4C0C6044034403F180031879BB
S315600023500B464FEA43030B444FEA0313134403F55A
S31560002360047302461A7140F20003C4F202037A69EA
S31560002370C3F8C820FA7943F64453C0F2000353F811
S315600023802230BA791A60FA7943F64453C0F20003F0
S3156000239053F82220F97943F64453C0F2000353F808
S315600023A021301B6843F0400313603B79002B15D145
S315600023B040F20003C4F2020340F20002C4F20202D9
S315600023C01169F87943F65052C0F2000252F82020A3
S315600023D06FEA020201EA02021A6112E040F20003A9
S315600023E0C4F2020340F20002C4F202021169F879F3
S315600023F043F65052C0F2000252F8202041EA02022F
S315600024001A6107F11807BD4690BC704780B483B067
S3156000241000AF0346FB71FB79022B00D900BEFB7946
S31560002420022B11D8FA7943F64453C0F2000353F8ED
S315600024302220F97943F64453C0F2000353F8213061
S315600024401B6843F02003136007F10C07BD4680BC90
S31560002450704700BF80B483B000AF03463960FB713C
S31560002460FB79022B00D900BEFB79022B13D8FA79CF
S3156000247043F66853C0F2000353F822303A684FEAD5
S3156000248012421A60FA7943F65C53C0F2000353F8BD
S3156000249022303A681A6007F10C07BD4680BC704767
S315600024A080B483B000AF4FF000037B60EFF310831E
S315600024B07B607B68184607F10C07BD4680BC704799
S315600024C080B483B000AF78607B6883F3108807F1CF
S315600024D00C07BD4680BC704780B400AFBD4680BC6B
S315600024E0704700BF80B58AB000AF43F67C53C0F238
S315600024F00003BC460FCB8CE80F0042F20003CEF21D
S3156000250004039B6C4FEA930303F003034FEA8303D0
S3156000251007F12802134453F8283C3B6142F200035A
S31560002520CEF204039B6C4FEA131303F003034FEAE6
S31560002530830307F12802134453F8283C7B6142F277
S315600025400003CEF204039B6C4FEA931303F003037C
S315600025504FEA830307F12802134453F8283CBB6112
S3156000256042F20003CEF20403DB6C4FEA132303F05E
S315600025701F033B6242F20003CEF20403DB6C4FEAB8
S31560002580533303F001037B623B6A03F10103FB6192
S315600025907B6A002B03D0FB694FEA4303FB6100F0C3
S315600025A049F8024640F20803C2F200031A6040F29C
S315600025B00803C2F200031A683B69B2FBF3F240F209
S315600025C00C03C2F200031A6040F20803C2F2000371
S315600025D01A687B69B2FBF3F240F21003C2F20003A1
S315600025E01A6040F20803C2F200031A68BB69B2FBC4
S315600025F0F3F240F21403C2F200031A6040F20803D9
S31560002600C2F200031A68FB69B2FBF3F240F21803E8
S31560002610C2F200031A6040F20803C2F200031A68AD
S3156000262040F20403C2F200031A6007F12807BD46B0
S3156000263080BD00BF80B48BB000AF4FF000037B60FD
S3156000264040F61C03C6F20803BB6040F23023C6F2B4
S315600026500803FB60FB681B6823F070433B613A69C3
S3156000266041F2CF13C0F2A1539A4208D14EF62C73B1
S31560002670C6F201037B617B691B687B603DE0BB68DA
S315600026801A6844F24133C4F654439A4235D140F64F
S315600026904003C6F20803BB61BB691B68FB61FB694B
S315600026A023F07F43FB61FA6940F20033C0F2010315
S315600026B09A4222D9FA694FF6FF73C0F201039A4231
S315600026C008D841F22C63C6F208033B623B6A1B687A
S315600026D07B6012E0FA694FF6FF73C0F202039A421A
S315600026E008D841F6AC63C6F208037B627B6A1B6856
S315600026F07B6002E04FF000037B607B68002B05D1B6
S3156000270000BE47F64003C0F27D137B607B681846C7
S3156000271007F12C07BD4680BC704700BF80B487B008
S3156000272000AF40F20003C4F20203D3F8C830FB6086
S3156000273040F20003C4F202034FF00002C3F8C8205F
S315600027404FF00003FB7139E0FB794FEA53037B746A
S3156000275040F20002C4F20202797C0B464FEA430360
S315600027600B444FEA0313134403F508731B79BB74D8
S31560002770FB7903F00103FB74FB7C002B0DD0F97928
S31560002780BB7C4FEA5313DBB21A4602F0030240F2F7
S315600027902C13C2F200035A540CE0F979BB7C4FEA61
S315600027A05303DBB21A4602F0030240F22C13C2F264
S315600027B000035A54FB7903F10103FB71FB79092B82
S315600027C0C2D94FF00003BB6073E0BA6840F21C03E5
S315600027D0C2F200034FEA021213441B79BB75BA7D3D
S315600027E043F6C453C0F200039B5C3B75BA7D43F667
S315600027F09453C0F200039B5C012B07D0022B27D0B9
S31560002800002B47D14FF00003FB7547E03B7DFF2B64
S3156000281000D100BE40F20002C4F20202397D0B46CE
S315600028204FEA43030B444FEA0313134403F508735B
S315600028301B7A7B757B7D03F00103DBB2002B03D033
S315600028404FF00003FB7529E04FF00103FB7525E0AF
S315600028503B7DFF2B00D100BE40F20002C4F20202B3
S31560002860397D0B464FEA43030B444FEA0313134487
S3156000287003F50A731B797B757B7D03F00103DBB27D
S31560002880002B03D04FF00003FB7507E04FF0020307
S31560002890FB7503E000BE4FF00003FB75BA6840F2BB
S315600028A03813C2F20003F97D9954BB6803F1010342
S315600028B0BB60BB68002B88DD40F20003C4F20203F4
S315600028C0FA68C3F8C82007F11C07BD4680BC70478C
S315600028D080B483B000AF0346FB804EF20013CEF2A5
S315600028E00003B7F906204FEA5212F98801F01F017A
S315600028F04FF0010000FA01F102F1600243F8221084
S3156000290007F10C07BD4680BC704700BF80B400AFBE
S31560002910BD4680BC704700BF80B483B000AF03463D
S31560002920FB7107F10C07BD4680BC7047684620F016
S3156000293007018D4689B500AF4FF00000FFF7ECFF49
S315600029404FF07600FFF7C4FFBD46BDE88940854677
S31560002950704700BF684620F007018D4689B500AF15
S315600029604FF00100FFF7D8FF4FF07700FFF7B0FF99
S31560002970BD46BDE889408546704700BF684620F081
S3156000298007018D4689B500AF4FF00200FFF7C4FF1F
S315600029904FF07800FFF79CFFBD46BDE8894085464D
S315600029A0704700BF684620F007018D4689B500AFC5
S315600029B04FF00300FFF7B0FF4FF07900FFF788FF95
S315600029C0BD46BDE889408546704700BF684620F031
S315600029D007018D4689B500AF4FF00400FFF79CFFF5
S315600029E04FF07A00FFF774FFBD46BDE88940854623
S315600029F0704700BF684620F007018D4689B500AF75
S31560002A004FF00500FFF788FF4FF07B00FFF760FF90
S31560002A10BD46BDE889408546704700BF684620F0E0
S31560002A2007018D4689B500AF4FF00600FFF774FFCA
S31560002A304FF07C00FFF74CFFBD46BDE889408546F8
S31560002A40704700BF684620F007018D4689B500AF24
S31560002A504FF00700FFF760FF4FF07D00FFF738FF8C
S31560002A60BD46BDE889408546704700BF684620F090
S31560002A7007018D4689B500AF4FF00800FFF74CFFA0
S31560002A804FF07E00FFF724FFBD46BDE889408546CE
S31560002A90704700BF684620F007018D4689B500AFD4
S31560002AA04FF00900FFF738FF4FF07F00FFF710FF88
S31560002AB0BD46BDE889408546704700BF684620F040
S31560002AC007018D4689B500AF4FF00A00FFF724FF76
S31560002AD04FF08000FFF7FCFEBD46BDE889408546A5
S31560002AE0704700BF684620F007018D4689B500AF84
S31560002AF04FF00B00FFF710FF4FF08100FFF7E8FE85
S31560002B00BD46BDE889408546704700BF684620F0EF
S31560002B1007018D4689B500AF4FF00C00FFF7FCFE4C
S31560002B204FF08200FFF7D4FEBD46BDE8894085467A
S31560002B30704700BF684620F007018D4689B500AF33
S31560002B404FF00D00FFF7E8FE4FF08300FFF7C0FE81
S31560002B50BD46BDE889408546704700BF684620F09F
S31560002B6007018D4689B500AF4FF00E00FFF7D4FE22
S31560002B704FF08400FFF7ACFEBD46BDE88940854650
S31560002B80704700BF684620F007018D4689B500AFE3
S31560002B904FF00F00FFF7C0FE4FF08500FFF798FE7D
S31560002BA0BD46BDE889408546704700BF684620F04F
S31560002BB007018D4689B500AF4FF01000FFF7ACFEF8
S31560002BC04FF08600FFF784FEBD46BDE88940854626
S31560002BD0704700BF684620F007018D4689B500AF93
S31560002BE04FF01100FFF798FE4FF08700FFF770FE79
S31560002BF0BD46BDE889408546704700BF684620F0FF
S31560002C0007018D4689B500AF4FF01200FFF784FECD
S31560002C104FF08800FFF75CFEBD46BDE889408546FB
S31560002C20704700BF684620F007018D4689B500AF42
S31560002C304FF01300FFF770FE4FF08900FFF748FE74
S31560002C40BD46BDE889408546704700BF684620F0AE
S31560002C5007018D4689B500AF4FF01400FFF75CFEA3
S31560002C604FF08A00FFF734FEBD46BDE889408546D1
S31560002C70704700BF684620F007018D4689B500AFF2
S31560002C804FF01500FFF748FE4FF08B00FFF720FE70
S31560002C90BD46BDE889408546704700BF684620F05E
S31560002CA007018D4689B500AF4FF01600FFF734FE79
S31560002CB04FF08C00FFF70CFEBD46BDE889408546A7
S31560002CC0704700BF684620F007018D4689B500AFA2
S31560002CD04FF01700FFF720FE4FF08D00FFF7F8FD6D
S31560002CE0BD46BDE889408546704700BF684620F00E
S31560002CF007018D4689B500AF4FF01800FFF70CFE4F
S31560002D004FF08E00FFF7E4FDBD46BDE8894085467D
S31560002D10704700BF684620F007018D4689B500AF51
S31560002D204FF01900FFF7F8FD4FF08F00FFF7D0FD69
S31560002D30BD46BDE889408546704700BF684620F0BD
S31560002D4007018D4689B500AF4FF01A00FFF7E4FD25
S31560002D504FF09000FFF7BCFDBD46BDE88940854653
S31560002D60704700BF684620F007018D4689B500AF01
S31560002D704FF01B00FFF7D0FD4FF09100FFF7A8FD65
S31560002D80BD46BDE889408546704700BF684620F06D
S31560002D9007018D4689B500AF4FF01C00FFF7BCFDFB
S31560002DA04FF09200FFF794FDBD46BDE88940854629
S31560002DB0704700BF684620F007018D4689B500AFB1
S31560002DC04FF01D00FFF7A8FD4FF09300FFF780FD61
S31560002DD0BD46BDE889408546704700BF684620F01D
S31560002DE007018D4689B500AF4FF01E00FFF794FDD1
S31560002DF04FF09400FFF76CFDBD46BDE889408546FF
S31560002E00704700BF684620F007018D4689B500AF60
S31560002E104FF01F00FFF780FD4FF09500FFF758FD5C
S31560002E20BD46BDE889408546704700BF81F00041D8
S31560002E3002E000BF83F0004330B54FEA41044FEA39
S31560002E40430594EA050F08BF90EA020F1FBF54EAD4
S31560002E50000C55EA020C7FEA645C7FEA655C00F070
S31560002E60E2804FEA5454D4EB5555B8BF6D420CDD41
S31560002E702C4480EA020281EA030382EA000083EAC4
S31560002E80010180EA020281EA0303362D88BF30BD64
S31560002E9011F0004F4FEA01314FF4801C4CEA1131BA
S31560002EA002D0404261EB410113F0004F4FEA033319
S31560002EB04CEA133302D0524263EB430394EA050FA4
S31560002EC000F0A780A4F10104D5F1200E0DDB02FA13
S31560002ED00EFC22FA05F2801841F1000103FA0EF2A7
S31560002EE0801843FA05F359410EE0A5F120050EF16D
S31560002EF0200E012A03FA0EFC28BF4CF0020C43FA9E
S31560002F0005F3C01851EBE37101F0004507D54FF0AA
S31560002F10000EDCF1000C7EEB00006EEB0101B1F5FA
S31560002F20801F1BD3B1F5001F0CD349085FEA300040
S31560002F304FEA3C0C04F101044FEA445212F5800F4B
S31560002F4080F09A80BCF1004F08BF5FEA500C50F1E8
S31560002F50000041EB045141EA050130BD5FEA4C0CCB
S31560002F60404141EB010111F4801FA4F10104E9D154
S31560002F7091F0000F04BF01460020B1FA81F308BF4B
S31560002F802033A3F10B03B3F120020CDA0C3208DD17
S31560002F9002F1140CC2F10C0201FA0CF021FA02F1F2
S31560002FA00CE002F11402D8BFC2F1200C01FA02F162
S31560002FB020FA0CFCDCBF41EA0C019040E41AA2BF87
S31560002FC001EB0451294330BD6FEA04041F3C1CDA4F
S31560002FD00C340EDC04F11404C4F1200220FA04F06F
S31560002FE001FA02F340EA030021FA04F345EA030119
S31560002FF030BDC4F10C04C4F1200220FA02F001FADB
S3156000300004F340EA0300294630BD21FA04F029465C
S3156000301030BD94F0000F83F4801306BF81F48011F5
S315600030200134013D4EE77FEA645C18BF7FEA655C68
S3156000303029D094EA050F08BF90EA020F05D054EA3A
S31560003040000C04BF1946104630BD91EA030F1EBF3F
S315600030500021002030BD5FEA545C05D14000494143
S3156000306028BF41F0004130BD14F580043CBF01F536
S31560003070801130BD01F0004545F0FE4141F470011C
S315600030804FF0000030BD7FEA645C1ABF19461046F7
S315600030907FEA655C1CBF0B46024650EA013406BFF8
S315600030A052EA033591EA030F41F4002130BD00BFB7
S315600030B090F0000F04BF0021704730B54FF4806474
S315600030C004F132044FF000054FF0000150E700BFF5
S315600030D090F0000F04BF0021704730B54FF4806454
S315600030E004F1320410F0004548BF40424FF0000141
S315600030F03EE700BF42004FEAE2014FEA31014FEA84
S3156000310002701FBF12F07F4393F07F4F81F06051D2
S31560003110704792F0000F14BF93F07F4F704730B541
S315600031204FF4607401F0004521F0004120E700BFD4
S3156000313050EA010208BF704730B54FF000050AE05B
S3156000314050EA010208BF704730B511F0004502D55C
S31560003150404261EB41014FF4806404F132045FEA5E
S31560003160915C3FF4DCAE4FF003025FEADC0C18BF03
S3156000317003325FEADC0C18BF033202EBDC02C2F1F9
S31560003180200300FA03FC20FA02F001FA03FE40EA8B
S315600031900E0021FA02F11444C1E600BF70B54FF08B
S315600031A0FF0C4CF4E06C1CEA11541DBF1CEA13556D
S315600031B094EA0C0F95EA0C0F00F0DEF82C4481EAD5
S315600031C0030621EA4C5123EA4C5350EA013518BFF5
S315600031D052EA033541F4801143F4801338D0A0FBE2
S315600031E002CE4FF00005E1FB02E506F00042E0FB8F
S315600031F003E54FF00006E1FB03569CF0000F18BF95
S315600032004EF0010EA4F1FF04B6F5007F64F540743C
S3156000321004D25FEA4E0E6D4146EB060642EAC621CF
S3156000322041EA55514FEAC52040EA5E504FEACE2E3C
S31560003230B4F1FD0C88BFBCF5E06F1ED8BEF1004F3F
S3156000324008BF5FEA500E50F1000041EB045170BDBB
S3156000325006F0004646EA010140EA020081EA0301FF
S31560003260B4EB5C04C2BFD4EB0C0541EA045170BDFB
S3156000327041F480114FF0000E013C00F3AB8014F175
S31560003280360FDEBF002001F0004170BDC4F10004BE
S31560003290203C35DA0C341BDC04F11404C4F120053F
S315600032A000FA05F320FA04F001FA05F240EA02009A
S315600032B001F0004221F0004110EBD37021FA04F6D0
S315600032C042EB06015EEA430E08BF20EAD37070BD8A
S315600032D0C4F10C04C4F1200500FA04F320FA05F0E9
S315600032E001FA04F240EA020001F0004110EBD370EB
S315600032F041F100015EEA430E08BF20EAD37070BD5B
S31560003300C4F1200500FA05F24EEA020E20FA04F333
S3156000331001FA05F243EA020321FA04F001F00041E2
S3156000332021FA04F220EA020000EBD3705EEA430E53
S3156000333008BF20EAD37070BD94F0000F0FD101F082
S315600033400046400041EB010111F4801F08BF013CBB
S31560003350F7D041EA060195F0000F18BF704703F0F9
S315600033600046520043EB030313F4801F08BF013D80
S31560003370F7D043EA0603704794EA0C0F0CEA13553C
S3156000338018BF95EA0C0F0CD050EA410618BF52EAF6
S315600033904306D1D181EA030101F000414FF00000FC
S315600033A070BD50EA410606BF1046194652EA43060A
S315600033B019D094EA0C0F02D150EA013613D195EA7E
S315600033C00C0F05D152EA03361CBF104619460AD1C6
S315600033D081EA030101F0004141F0FE4141F47001D0
S315600033E04FF0000070BD41F0FE4141F4780170BDC0
S315600033F070B54FF0FF0C4CF4E06C1CEA11541DBF25
S315600034001CEA135594EA0C0F95EA0C0F00F0A7F826
S31560003410A4EB050481EA030E52EA03354FEA013153
S3156000342000F088804FEA03334FF0805545EA131366
S3156000343043EA12634FEA022245EA111545EA10652E
S315600034404FEA00260EF000419D4208BF964244F1C5
S31560003450FD0404F5407402D25B084FEA3202B61AE4
S3156000346065EB03055B084FEA32024FF480104FF4B8
S31560003470002CB6EB020E75EB030E22BFB61A75462C
S3156000348040EA0C005B084FEA3202B6EB020E75EBBF
S31560003490030E22BFB61A754640EA5C005B084FEA27
S315600034A03202B6EB020E75EB030E22BFB61A7546F4
S315600034B040EA9C005B084FEA3202B6EB020E75EBFF
S315600034C0030E22BFB61A754640EADC0055EA060EC0
S315600034D018D04FEA051545EA16754FEA06164FEA03
S315600034E0C30343EA52734FEAC2025FEA1C1CC0D1AF
S315600034F011F4801F0BD141EA00014FF000004FF03C
S31560003500004CB6E711F4801F04BF01430020B4F1FC
S31560003510FD0C88BFBCF5E06F3FF6AFAEB5EB030CB4
S3156000352004BFB6EB020C5FEA500C50F1000041EBB1
S31560003530045170BD0EF0004E4EEA113114EB5C047E
S31560003540C2BFD4EB0C0541EA045170BD41F4801151
S315600035504FF0000E013C90E645EA060E8DE60CEA59
S31560003560135594EA0C0F08BF95EA0C0F3FF43BAF76
S3156000357094EA0C0F0AD150EA01347FF434AF95EA2D
S315600035800C0F7FF425AF104619462CE795EA0C0F11
S3156000359006D152EA03353FF4FDAE1046194622E7DE
S315600035A050EA410618BF52EA43067FF4C5AE50EAB8
S315600035B041047FF40DAF52EA43057FF4EBAE12E7A8
S315600035C04FF0FF3C06E000BF4FF0010C02E000BF89
S315600035D04FF0010C4DF804CD4FEA410C7FEA6C5C6C
S315600035E04FEA430C18BF7FEA6C5C1BD001B050EA0F
S315600035F0410C0CBF52EA430C91EA030F02BF90EAFA
S31560003600020F0020704710F1000F91EA030F58BFB8
S31560003610994208BF90422CBFD8176FEAE37040F01A
S31560003620010070474FEA410C7FEA6C5C02D150EAB8
S31560003630013C07D14FEA430C7FEA6C5CD6D152EA73
S31560003640033CD3D05DF8040B704700BF8446104638
S3156000365062468C461946634600E000BF01B5FFF737
S31560003660B7FF002848BF10F1000F01BD4DF808ED07
S31560003670FFF7F4FF0CBF012000205DF808FB00BFD8
S315600036804DF808EDFFF7EAFF34BF012000205DF832
S3156000369008FB00BF4DF808EDFFF7E0FF94BF01207F
S315600036A000205DF808FB00BF4DF808EDFFF7CEFF80
S315600036B094BF012000205DF808FB00BF4DF808EDBF
S315600036C0FFF7C4FF34BF012000205DF808FB00BF90
S315600036D040F22C03C2F200031868704770B543F6D7
S315600036E0486643F64865C0F20006C0F20005761BE0
S315600036F0B61006D0002455F8243001349847A64207
S31560003700F9D843F6486543F64C66C0F20005C0F248
S315600037100006761B00F08CFBB61006D0002455F828
S31560003720243001349847A642F9D870BD032AC9B23D
S3156000373030B407D822B10023C15401339342FBD180
S3156000374030BC704700EB020C034601E003F8011C35
S3156000375003F003041A460133002CF7D14FF001330E
S31560003760C2EB0C0403FB01F31FE042F8403C42F855
S315600037703C3C42F8383C42F8343C42F8303C42F833
S315600037802C3C42F8283C42F8243C42F8203C42F863
S315600037901C3C42F8183C42F8143C42F8103C42F893
S315600037A00C3C42F8083C42F8043C154640323F2C3B
S315600037B0A4F14004D9DC2A46C5EB0C0407E042F8C4
S315600037C0103C42F80C3C42F8083C42F8043C154672
S315600037D010320F2CA4F11004F1DC2A46C5EB0C055F
S315600037E001E042F8043C14460432032DA5F10405B9
S315600037F0F7DC01E004F8011B6445FBD3A0E700BFDA
S315600038002DE9D0438AB006460F4600F079F840F2BB
S315600038102014C2F2000494F90030B3F1FF3F8046F1
S31560003820894638D03046394600F0F6F9002832D05D
S31560003830304639462EA3D3E90023FFF73FFF002821
S315600038402ED1304639462CA3D3E90023FFF718FF63
S3156000385008B394F9002043F6F853C0F20003002041
S3156000386000210193042300930023022ACDE9026715
S315600038700893CDE90601CDE9046732D0684600F0C9
S31560003880D3F900282DD0089B1BB1FFF721FF089BB9
S315600038900360DDE90689404649460AB0BDE8D08343
S315600038A0227843F6F853C0F20003CDE9026701932C
S315600038B00323CDE9046700930023089342B94FF6CA
S315600038C0FF734FF06042C4F2EF73CDE90623D5E78C
S315600038D00020022A40F20001C7F6F071CDE9060128
S315600038E0CCD1FFF7F5FE22230360CCE7AFF300806F
S315600038F0EF39FAFE422E864051302DD5104987C0E9
S3156000390042F6416321F00042C4F286039A422DE9F1
S31560003910F04F044683B00D46804689464FEAD1771C
S3156000392016D94FF6FF73C7F6EF739A4238D921F06E
S315600039307F4C02462CF4700C0B465CEA000C2AD1D4
S31560003940002F40F038812046294603B0BDE8F08F4D
S3156000395042F64263C3F6D6739A4200F2E2804FF6AD
S31560003960FF73C3F62F639A4200F2F48094A3D3E9FF
S315600039700023FFF761FA40F200030022C3F6F073FA
S31560003980FFF79CFE002853D040F2000320462946EC
S315600039900022C3F6F073FFF74FFA04460D46D2E7EE
S315600039A089A3D3E90023FFF789FE002840F0D4807D
S315600039B02046294686A3D3E90023FFF761FE002847
S315600039C040F0F98084A3D3E9002320462946FFF717
S315600039D0E5FB43F60063C0F2000303EBC707D7E9D4
S315600039E00823FFF729FA00F021F90646FFF770FB76
S315600039F07BA3D3E9002380468946FFF7CFFB0246C7
S31560003A000B4620462946FFF715FA77A3D3E900232C
S31560003A10CDE9000140464946FFF7C0FB82468B462A
S31560003A20DDE9000152465B46FFF704FA04460D469F
S31560003A3022462B4620462946FFF7B0FB6CA3D3E906
S31560003A40002380468946FFF7A9FB6BA3D3E90023D1
S31560003A50FFF7F0F942464B46FFF7A0FB68A3D3E9B0
S31560003A600023FFF7E9F942464B46FFF797FB66A34B
S31560003A70D3E90023FFF7DEF942464B46FFF78EFB9C
S31560003A8063A3D3E90023FFF7D7F942464B46FFF716
S31560003A9085FB02460B4620462946FFF7CBF9804652
S31560003AA08946002E62D02046294642464B46FFF79D
S31560003AB075FB42464B4604460D4600204FF080415A
S31560003AC0FFF7B8F902460B4620462946FFF790FCF9
S31560003AD002460B4650465946FFF7ACF9DDE900232E
S31560003AE0FFF7A8F90B4640F200010246C3F6F071F3
S31560003AF00020FFF79FF96FF47F739E42A4BF0446D0
S31560003B0001EB0655BFF61FAF06F57A7600224FF039
S31560003B10B87301EB06552946FFF740FB04460D4690
S31560003B2011E74AF2B123C3F6F0739A423FF64AAF01
S31560003B3043F600647E42C0F20004F61B04EBC70441
S31560003B400136D4E90023FFF775F9D4E904ABCDE972
S31560003B50000165E700266BE719A1D1E9000102467D
S31560003B600B46FFF71BFB04460D46ECE6204629464E
S31560003B7042464B46FFF712FB00224FF08043064653
S31560003B800F4640464946FFF755F902460B46304612
S31560003B903946FFF72DFC22462B46FFF74BF90B46BD
S31560003BA040F200010246C3F6F0710020FFF742F9C9
S31560003BB004460D46C7E600240025C4E6AFF3008040
S31560003BC09C7500883CE4377EEF39FAFE422E8640CB
S31560003BD051302DD5104987C0FE822B654715F73FBA
S31560003BE00000E0FE422EE63F763C7935EF39EA3D4D
S31560003BF0D0A4BE726937663EF16BD2C541BDBB3E8D
S31560003C002CDE25AF6A56113F93BDBE166CC1663F6A
S31560003C103E5555555555C53F21F0004101F10040CF
S31560003C2000F58010C00F7047002070474FEA4102D0
S31560003C3012F5001215D211D56FF47873B3EB625298
S31560003C4012D94FEAC12343F0004343EA505311F0BF
S31560003C50004F23FA02F018BF404270474FF0000051
S31560003C60704750EA013005D111F0004008BF6FF08F
S31560003C70004070474FF00000704700BF4257020097
S31560003C800000010600300140043001400830014068
S31560003C900C300140103001401430014018300140B2
S31560003CA01C30014020300140243001402830014062
S31560003CB02C30014030300140343001403830014012
S31560003CC03C300140403001404430014048300140C2
S31560003CD04C30014050300140543001405830014072
S31560003CE05C30014060300140643001406830014022
S31560003CF06C300140703001407430014078300140D2
S31560003D007C30014020002100220023002400250091
S31560003D1026002700280029002A002B002C002D00F1
S31560003D202E002F00300031003200330034003500A1
S31560003D3036003700380039003A003B003C003D0051
S31560003D403E003F0060000240A0000240E0000240EA
S31560003D501000000020000000400000000005024046
S31560003D6004050240080502406C000240AC000240B7
S31560003D70EC00024010000860000204000100000030
S31560003D800200000004000000010000005344445F8C
S31560003D903100000000000001020000010200000086
S31560003DA000FFFF00000000010200000102000000A9
S31560003DB000FFFF000000000102FFFFFFFF000000A0
S31560003DC000FFFF00FF0000000001010101FFFFFF8F
S31560003DD0FFFFFFFFFF0202020203030303FFFFFF71
S31560003DE0FFFFFFFFFF04040404FFFFFFFFFFFFFF69
S31560003DF0FFFFFFFF430000006578700000000000D1
S31560003E000000E0FE422EE63F0000E0FE422EE6BFE6
S31560003E10763C7935EF39EA3D763C7935EF39EABD5E
S31560003E20000000000000E03F000000000000E0BF6E
S31560003E30F8B500BFF8BC08BC9E467047F8B500BF31
S31560003E40F8BC08BC9E4670478504000071040000FB
S31560003E500000000040787D0140787D01105E5F00C3
S31560003E60105E5F00105E5F00105E5F008C3D0000BC
S31560003E701F0010000000000000000000300000205D
S31560003E8000000000000000000000000000000000CC
S31560003E9000000000000000000000000000000000BC
S31560003EA0F43D00000000000000000000000000007B
S31560003EB0000000000000000000000000000000009C
S31560003EC0000000000000000000000000000000008C
S31560003ED0000000000000000000000000000000007C
S31560003EE0000000000000000000000000000000006C
S31560003EF0000000000000000000000000000000005C
S31560003F00000000000000000000000000000000004B
S31560003F10000000000000000000000000000000003B
S31560003F20000000000000000000000000000000002B
S31560003F30000000000000000000000000000000001B
S31560003F40000000000000000000000000000000000B
S31560003F5000000000000000000000000000000000FB
S31560003F6000000000000000000000000000000000EB
S30960003F7001000000E6
S705000002995F
